:100000000C9434000C9446000C9446000C9446006A
:100010000C9446000C9446000C9446000C94460048
:100020000C9446000C9446000C9446000C94460038
:100030000C9446000C9446000C9446000C94460028
:100040000C9446000C9446000C9446000C94460018
:100050000C9446000C9446000C9446000C94460008
:100060000C9446000C94460011241FBECFEFD8E03C
:10007000DEBFCDBF21E0A0E0B1E001C01D92A23102
:10008000B207E1F70E9417010C9441010C940000A3
:10009000CF93DF93CDB7DEB785E290E090930F0169
:1000A00080930E0183E290E0909311018093100100
:1000B00084E290E090930D0180930C018BE290E03C
:1000C000909309018093080189E290E090930B01DD
:1000D00080930A018AE290E09093070180930601E1
:1000E00088E290E0909303018093020186E290E021
:1000F000909305018093040187E290E090930101C1
:10010000809300010000DF91CF910895CF93DF939A
:1001100000D000D01F92CDB7DEB79A8389836B835E
:100120005D834C838C819D81019789F489819A81BB
:10013000FC0182819381FC01308189819A81FC01DB
:10014000828193812B81232BFC01208313C0898121
:100150009A81FC0182819381FC018081982F8B819F
:100160008095292F282389819A81FC01828193819E
:10017000FC01208300000F900F900F900F900F90C4
:10018000DF91CF910895CF93DF9300D000D01F92DD
:10019000CDB7DEB79A8389836B835D834C838C8173
:1001A0009D81019789F489819A81FC0180819181E7
:1001B000FC01308189819A81FC01808191812B81B0
:1001C000232BFC01208313C089819A81FC0180814B
:1001D0009181FC018081982F8B818095292F282384
:1001E00089819A81FC0180819181FC01208300003A
:1001F0000F900F900F900F900F90DF91CF91089577
:10020000CF93DF9300D0CDB7DEB79A8389838981FE
:100210009A81FC0182819381FC0120812F5FFC0186
:10022000208300000F900F90DF91CF910895CF931E
:10023000DF93CDB7DEB70E94480041E050E060E2B6
:100240008CE091E00E94C30041E050E060E386E072
:1002500091E00E94C30040E050E060E28CE091E059
:100260000E94860041E050E060E186E091E00E945B
:10027000860040E050E060E286E091E00E94860067
:06028000FFCFF894FFCF50
:00000001FF
