:100000000C9434000C9446000C9446000C9446006A
:100010000C9446000C9446000C9446000C94460048
:100020000C9446000C9446000C9446000C94460038
:100030000C9446000C9446000C9446000C94460028
:100040000C9446000C9446000C9446000C94460018
:100050000C9446000C9446000C9446000C94460008
:100060000C9446000C94460011241FBECFEFD8E03C
:10007000DEBFCDBF21E0A0E0B1E001C01D92A23102
:10008000B207E1F70E94EE000C94FE000C94000011
:10009000CF93DF93CDB7DEB785E290E090930F0169
:1000A00080930E0183E290E0909311018093100100
:1000B00084E290E090930D0180930C018BE290E03C
:1000C000909309018093080189E290E090930B01DD
:1000D00080930A018AE290E09093070180930601E1
:1000E00088E290E0909303018093020186E290E021
:1000F000909305018093040187E290E090930101C1
:10010000809300010000DF91CF910895CF93DF939A
:1001100000D000D01F92CDB7DEB79A8389836B835E
:100120005D834C838C819D810197E1F489819A8163
:10013000FC0182819381FC018081482F8B81282FD3
:1001400030E081E090E002C0880F991F2A95E2F725
:10015000242F282B89819A81FC0182819381FC01C3
:1001600020831CC089819A81FC0182819381FC01DA
:100170008081482F8B81282F30E081E090E002C001
:10018000880F991F2A95E2F78095242F28238981CB
:100190009A81FC0182819381FC01208300000F90F1
:1001A0000F900F900F900F90DF91CF910895CF9304
:1001B000DF9300D0CDB7DEB79A83898389819A8196
:1001C000FC0182819381FC0120812F5FFC0120834F
:1001D00000000F900F90DF91CF910895CF93DF93A0
:1001E000CDB7DEB741E050E062E08CE091E00E94E4
:1001F00086008CE091E00E94D700FFCFF894FFCFFB
:00000001FF
